{
  "_format": "hh-sol-artifact-1",
  "contractName": "NFT",
  "sourceName": "src/backend/contracts/NFT.sol",
  "abi": [
    {
      "inputs": [],
      "stateMutability": "nonpayable",
      "type": "constructor"
    },
    {
      "anonymous": false,
      "inputs": [
        {
          "indexed": true,
          "internalType": "address",
          "name": "owner",
          "type": "address"
        },
        {
          "indexed": true,
          "internalType": "address",
          "name": "approved",
          "type": "address"
        },
        {
          "indexed": true,
          "internalType": "uint256",
          "name": "tokenId",
          "type": "uint256"
        }
      ],
      "name": "Approval",
      "type": "event"
    },
    {
      "anonymous": false,
      "inputs": [
        {
          "indexed": true,
          "internalType": "address",
          "name": "owner",
          "type": "address"
        },
        {
          "indexed": true,
          "internalType": "address",
          "name": "operator",
          "type": "address"
        },
        {
          "indexed": false,
          "internalType": "bool",
          "name": "approved",
          "type": "bool"
        }
      ],
      "name": "ApprovalForAll",
      "type": "event"
    },
    {
      "anonymous": false,
      "inputs": [
        {
          "indexed": true,
          "internalType": "address",
          "name": "from",
          "type": "address"
        },
        {
          "indexed": true,
          "internalType": "address",
          "name": "to",
          "type": "address"
        },
        {
          "indexed": true,
          "internalType": "uint256",
          "name": "tokenId",
          "type": "uint256"
        }
      ],
      "name": "Transfer",
      "type": "event"
    },
    {
      "inputs": [
        {
          "internalType": "address",
          "name": "to",
          "type": "address"
        },
        {
          "internalType": "uint256",
          "name": "tokenId",
          "type": "uint256"
        }
      ],
      "name": "approve",
      "outputs": [],
      "stateMutability": "nonpayable",
      "type": "function"
    },
    {
      "inputs": [
        {
          "internalType": "address",
          "name": "owner",
          "type": "address"
        }
      ],
      "name": "balanceOf",
      "outputs": [
        {
          "internalType": "uint256",
          "name": "",
          "type": "uint256"
        }
      ],
      "stateMutability": "view",
      "type": "function"
    },
    {
      "inputs": [
        {
          "internalType": "uint256",
          "name": "tokenId",
          "type": "uint256"
        }
      ],
      "name": "getApproved",
      "outputs": [
        {
          "internalType": "address",
          "name": "",
          "type": "address"
        }
      ],
      "stateMutability": "view",
      "type": "function"
    },
    {
      "inputs": [
        {
          "internalType": "address",
          "name": "owner",
          "type": "address"
        },
        {
          "internalType": "address",
          "name": "operator",
          "type": "address"
        }
      ],
      "name": "isApprovedForAll",
      "outputs": [
        {
          "internalType": "bool",
          "name": "",
          "type": "bool"
        }
      ],
      "stateMutability": "view",
      "type": "function"
    },
    {
      "inputs": [
        {
          "internalType": "string",
          "name": "_tokenURI",
          "type": "string"
        }
      ],
      "name": "mint",
      "outputs": [
        {
          "internalType": "uint256",
          "name": "",
          "type": "uint256"
        }
      ],
      "stateMutability": "nonpayable",
      "type": "function"
    },
    {
      "inputs": [],
      "name": "name",
      "outputs": [
        {
          "internalType": "string",
          "name": "",
          "type": "string"
        }
      ],
      "stateMutability": "view",
      "type": "function"
    },
    {
      "inputs": [],
      "name": "owner",
      "outputs": [
        {
          "internalType": "address",
          "name": "",
          "type": "address"
        }
      ],
      "stateMutability": "view",
      "type": "function"
    },
    {
      "inputs": [
        {
          "internalType": "uint256",
          "name": "tokenId",
          "type": "uint256"
        }
      ],
      "name": "ownerOf",
      "outputs": [
        {
          "internalType": "address",
          "name": "",
          "type": "address"
        }
      ],
      "stateMutability": "view",
      "type": "function"
    },
    {
      "inputs": [
        {
          "internalType": "address",
          "name": "from",
          "type": "address"
        },
        {
          "internalType": "address",
          "name": "to",
          "type": "address"
        },
        {
          "internalType": "uint256",
          "name": "tokenId",
          "type": "uint256"
        }
      ],
      "name": "safeTransferFrom",
      "outputs": [],
      "stateMutability": "nonpayable",
      "type": "function"
    },
    {
      "inputs": [
        {
          "internalType": "address",
          "name": "from",
          "type": "address"
        },
        {
          "internalType": "address",
          "name": "to",
          "type": "address"
        },
        {
          "internalType": "uint256",
          "name": "tokenId",
          "type": "uint256"
        },
        {
          "internalType": "bytes",
          "name": "_data",
          "type": "bytes"
        }
      ],
      "name": "safeTransferFrom",
      "outputs": [],
      "stateMutability": "nonpayable",
      "type": "function"
    },
    {
      "inputs": [
        {
          "internalType": "address",
          "name": "operator",
          "type": "address"
        },
        {
          "internalType": "bool",
          "name": "approved",
          "type": "bool"
        }
      ],
      "name": "setApprovalForAll",
      "outputs": [],
      "stateMutability": "nonpayable",
      "type": "function"
    },
    {
      "inputs": [
        {
          "internalType": "bytes4",
          "name": "interfaceId",
          "type": "bytes4"
        }
      ],
      "name": "supportsInterface",
      "outputs": [
        {
          "internalType": "bool",
          "name": "",
          "type": "bool"
        }
      ],
      "stateMutability": "view",
      "type": "function"
    },
    {
      "inputs": [],
      "name": "symbol",
      "outputs": [
        {
          "internalType": "string",
          "name": "",
          "type": "string"
        }
      ],
      "stateMutability": "view",
      "type": "function"
    },
    {
      "inputs": [],
      "name": "tokenCount",
      "outputs": [
        {
          "internalType": "uint256",
          "name": "",
          "type": "uint256"
        }
      ],
      "stateMutability": "view",
      "type": "function"
    },
    {
      "inputs": [
        {
          "internalType": "uint256",
          "name": "tokenId",
          "type": "uint256"
        }
      ],
      "name": "tokenURI",
      "outputs": [
        {
          "internalType": "string",
          "name": "",
          "type": "string"
        }
      ],
      "stateMutability": "view",
      "type": "function"
    },
    {
      "inputs": [
        {
          "internalType": "address",
          "name": "from",
          "type": "address"
        },
        {
          "internalType": "address",
          "name": "to",
          "type": "address"
        },
        {
          "internalType": "uint256",
          "name": "tokenId",
          "type": "uint256"
        }
      ],
      "name": "transferFrom",
      "outputs": [],
      "stateMutability": "nonpayable",
      "type": "function"
    }
  ],
  "bytecode": "0x60806040523480156200001157600080fd5b506040518060400160405280600b81526020017f4b53484954494a204e46540000000000000000000000000000000000000000008152506040518060400160405280600381526020017f4b534d0000000000000000000000000000000000000000000000000000000000815250816000908051906020019062000096929190620000b8565b508060019080519060200190620000af929190620000b8565b505050620001cd565b828054620000c69062000168565b90600052602060002090601f016020900481019282620000ea576000855562000136565b82601f106200010557805160ff191683800117855562000136565b8280016001018555821562000136579182015b828111156200013557825182559160200191906001019062000118565b5b50905062000145919062000149565b5090565b5b80821115620001645760008160009055506001016200014a565b5090565b600060028204905060018216806200018157607f821691505b602082108114156200019857620001976200019e565b5b50919050565b7f4e487b7100000000000000000000000000000000000000000000000000000000600052602260045260246000fd5b612c5e80620001dd6000396000f3fe608060405234801561001057600080fd5b50600436106101005760003560e01c80638da5cb5b11610097578063b88d4fde11610066578063b88d4fde146102ad578063c87b56dd146102c9578063d85d3d27146102f9578063e985e9c51461032957610100565b80638da5cb5b1461023757806395d89b41146102555780639f181b5e14610273578063a22cb4651461029157610100565b806323b872dd116100d357806323b872dd1461019f57806342842e0e146101bb5780636352211e146101d757806370a082311461020757610100565b806301ffc9a71461010557806306fdde0314610135578063081812fc14610153578063095ea7b314610183575b600080fd5b61011f600480360381019061011a9190611cca565b610359565b60405161012c9190612111565b60405180910390f35b61013d61043b565b60405161014a919061212c565b60405180910390f35b61016d60048036038101906101689190611d5d565b6104cd565b60405161017a91906120aa565b60405180910390f35b61019d60048036038101906101989190611c8e565b610552565b005b6101b960048036038101906101b49190611b88565b61066a565b005b6101d560048036038101906101d09190611b88565b6106ca565b005b6101f160048036038101906101ec9190611d5d565b6106ea565b6040516101fe91906120aa565b60405180910390f35b610221600480360381019061021c9190611b23565b61079c565b60405161022e919061234e565b60405180910390f35b61023f610854565b60405161024c91906120aa565b60405180910390f35b61025d61087a565b60405161026a919061212c565b60405180910390f35b61027b61090c565b604051610288919061234e565b60405180910390f35b6102ab60048036038101906102a69190611c52565b610912565b005b6102c760048036038101906102c29190611bd7565b610928565b005b6102e360048036038101906102de9190611d5d565b61098a565b6040516102f0919061212c565b60405180910390f35b610313600480360381019061030e9190611d1c565b610adc565b604051610320919061234e565b60405180910390f35b610343600480360381019061033e9190611b4c565b610b18565b6040516103509190612111565b60405180910390f35b60007f80ac58cd000000000000000000000000000000000000000000000000000000007bffffffffffffffffffffffffffffffffffffffffffffffffffffffff1916827bffffffffffffffffffffffffffffffffffffffffffffffffffffffff1916148061042457507f5b5e139f000000000000000000000000000000000000000000000000000000007bffffffffffffffffffffffffffffffffffffffffffffffffffffffff1916827bffffffffffffffffffffffffffffffffffffffffffffffffffffffff1916145b80610434575061043382610bac565b5b9050919050565b60606000805461044a906125a4565b80601f0160208091040260200160405190810160405280929190818152602001828054610476906125a4565b80156104c35780601f10610498576101008083540402835291602001916104c3565b820191906000526020600020905b8154815290600101906020018083116104a657829003601f168201915b5050505050905090565b60006104d882610c16565b610517576040517f08c379a000000000000000000000000000000000000000000000000000000000815260040161050e906122ce565b60405180910390fd5b6004600083815260200190815260200160002060009054906101000a900473ffffffffffffffffffffffffffffffffffffffff169050919050565b600061055d826106ea565b90508073ffffffffffffffffffffffffffffffffffffffff168373ffffffffffffffffffffffffffffffffffffffff1614156105ce576040517f08c379a00000000000000000000000000000000000000000000000000000000081526004016105c59061230e565b60405180910390fd5b8073ffffffffffffffffffffffffffffffffffffffff166105ed610c82565b73ffffffffffffffffffffffffffffffffffffffff16148061061c575061061b81610616610c82565b610b18565b5b61065b576040517f08c379a00000000000000000000000000000000000000000000000000000000081526004016106529061220e565b60405180910390fd5b6106658383610c8a565b505050565b61067b610675610c82565b82610d43565b6106ba576040517f08c379a00000000000000000000000000000000000000000000000000000000081526004016106b19061232e565b60405180910390fd5b6106c5838383610e21565b505050565b6106e583838360405180602001604052806000815250610928565b505050565b6000806002600084815260200190815260200160002060009054906101000a900473ffffffffffffffffffffffffffffffffffffffff169050600073ffffffffffffffffffffffffffffffffffffffff168173ffffffffffffffffffffffffffffffffffffffff161415610793576040517f08c379a000000000000000000000000000000000000000000000000000000000815260040161078a9061224e565b60405180910390fd5b80915050919050565b60008073ffffffffffffffffffffffffffffffffffffffff168273ffffffffffffffffffffffffffffffffffffffff16141561080d576040517f08c379a00000000000000000000000000000000000000000000000000000000081526004016108049061222e565b60405180910390fd5b600360008373ffffffffffffffffffffffffffffffffffffffff1673ffffffffffffffffffffffffffffffffffffffff168152602001908152602001600020549050919050565b600760009054906101000a900473ffffffffffffffffffffffffffffffffffffffff1681565b606060018054610889906125a4565b80601f01602080910402602001604051908101604052809291908181526020018280546108b5906125a4565b80156109025780601f106108d757610100808354040283529160200191610902565b820191906000526020600020905b8154815290600101906020018083116108e557829003601f168201915b5050505050905090565b60085481565b61092461091d610c82565b8383611088565b5050565b610939610933610c82565b83610d43565b610978576040517f08c379a000000000000000000000000000000000000000000000000000000000815260040161096f9061232e565b60405180910390fd5b610984848484846111f5565b50505050565b606061099582610c16565b6109d4576040517f08c379a00000000000000000000000000000000000000000000000000000000081526004016109cb906122ae565b60405180910390fd5b60006006600084815260200190815260200160002080546109f4906125a4565b80601f0160208091040260200160405190810160405280929190818152602001828054610a20906125a4565b8015610a6d5780601f10610a4257610100808354040283529160200191610a6d565b820191906000526020600020905b815481529060010190602001808311610a5057829003601f168201915b505050505090506000610a7e611251565b9050600081511415610a94578192505050610ad7565b600082511115610ac9578082604051602001610ab1929190612086565b60405160208183030381529060405292505050610ad7565b610ad284611268565b925050505b919050565b600060086000815480929190610af190612607565b9190505550610b023360085461130f565b610b0e6008548361132d565b6008549050919050565b6000600560008473ffffffffffffffffffffffffffffffffffffffff1673ffffffffffffffffffffffffffffffffffffffff16815260200190815260200160002060008373ffffffffffffffffffffffffffffffffffffffff1673ffffffffffffffffffffffffffffffffffffffff16815260200190815260200160002060009054906101000a900460ff16905092915050565b60007f01ffc9a7000000000000000000000000000000000000000000000000000000007bffffffffffffffffffffffffffffffffffffffffffffffffffffffff1916827bffffffffffffffffffffffffffffffffffffffffffffffffffffffff1916149050919050565b60008073ffffffffffffffffffffffffffffffffffffffff166002600084815260200190815260200160002060009054906101000a900473ffffffffffffffffffffffffffffffffffffffff1673ffffffffffffffffffffffffffffffffffffffff1614159050919050565b600033905090565b816004600083815260200190815260200160002060006101000a81548173ffffffffffffffffffffffffffffffffffffffff021916908373ffffffffffffffffffffffffffffffffffffffff160217905550808273ffffffffffffffffffffffffffffffffffffffff16610cfd836106ea565b73ffffffffffffffffffffffffffffffffffffffff167f8c5be1e5ebec7d5bd14f71427d1e84f3dd0314c0f7b2291e5b200ac8c7c3b92560405160405180910390a45050565b6000610d4e82610c16565b610d8d576040517f08c379a0000000000000000000000000000000000000000000000000000000008152600401610d84906121ee565b60405180910390fd5b6000610d98836106ea565b90508073ffffffffffffffffffffffffffffffffffffffff168473ffffffffffffffffffffffffffffffffffffffff161480610e0757508373ffffffffffffffffffffffffffffffffffffffff16610def846104cd565b73ffffffffffffffffffffffffffffffffffffffff16145b80610e185750610e178185610b18565b5b91505092915050565b8273ffffffffffffffffffffffffffffffffffffffff16610e41826106ea565b73ffffffffffffffffffffffffffffffffffffffff1614610e97576040517f08c379a0000000000000000000000000000000000000000000000000000000008152600401610e8e9061216e565b60405180910390fd5b600073ffffffffffffffffffffffffffffffffffffffff168273ffffffffffffffffffffffffffffffffffffffff161415610f07576040517f08c379a0000000000000000000000000000000000000000000000000000000008152600401610efe906121ae565b60405180910390fd5b610f128383836113a1565b610f1d600082610c8a565b6001600360008573ffffffffffffffffffffffffffffffffffffffff1673ffffffffffffffffffffffffffffffffffffffff1681526020019081526020016000206000828254610f6d91906124ba565b925050819055506001600360008473ffffffffffffffffffffffffffffffffffffffff1673ffffffffffffffffffffffffffffffffffffffff1681526020019081526020016000206000828254610fc49190612433565b92505081905550816002600083815260200190815260200160002060006101000a81548173ffffffffffffffffffffffffffffffffffffffff021916908373ffffffffffffffffffffffffffffffffffffffff160217905550808273ffffffffffffffffffffffffffffffffffffffff168473ffffffffffffffffffffffffffffffffffffffff167fddf252ad1be2c89b69c2b068fc378daa952ba7f163c4a11628f55a4df523b3ef60405160405180910390a46110838383836113a6565b505050565b8173ffffffffffffffffffffffffffffffffffffffff168373ffffffffffffffffffffffffffffffffffffffff1614156110f7576040517f08c379a00000000000000000000000000000000000000000000000000000000081526004016110ee906121ce565b60405180910390fd5b80600560008573ffffffffffffffffffffffffffffffffffffffff1673ffffffffffffffffffffffffffffffffffffffff16815260200190815260200160002060008473ffffffffffffffffffffffffffffffffffffffff1673ffffffffffffffffffffffffffffffffffffffff16815260200190815260200160002060006101000a81548160ff0219169083151502179055508173ffffffffffffffffffffffffffffffffffffffff168373ffffffffffffffffffffffffffffffffffffffff167f17307eab39ab6107e8899845ad3d59bd9653f200f220920489ca2b5937696c31836040516111e89190612111565b60405180910390a3505050565b611200848484610e21565b61120c848484846113ab565b61124b576040517f08c379a00000000000000000000000000000000000000000000000000000000081526004016112429061214e565b60405180910390fd5b50505050565b606060405180602001604052806000815250905090565b606061127382610c16565b6112b2576040517f08c379a00000000000000000000000000000000000000000000000000000000081526004016112a9906122ee565b60405180910390fd5b60006112bc611251565b905060008151116112dc5760405180602001604052806000815250611307565b806112e684611542565b6040516020016112f7929190612086565b6040516020818303038152906040525b915050919050565b6113298282604051806020016040528060008152506116ef565b5050565b61133682610c16565b611375576040517f08c379a000000000000000000000000000000000000000000000000000000000815260040161136c9061226e565b60405180910390fd5b8060066000848152602001908152602001600020908051906020019061139c929190611947565b505050565b505050565b505050565b60006113cc8473ffffffffffffffffffffffffffffffffffffffff1661174a565b15611535578373ffffffffffffffffffffffffffffffffffffffff1663150b7a026113f5610c82565b8786866040518563ffffffff1660e01b815260040161141794939291906120c5565b602060405180830381600087803b15801561143157600080fd5b505af192505050801561146257506040513d601f19601f8201168201806040525081019061145f9190611cf3565b60015b6114e5573d8060008114611492576040519150601f19603f3d011682016040523d82523d6000602084013e611497565b606091505b506000815114156114dd576040517f08c379a00000000000000000000000000000000000000000000000000000000081526004016114d49061214e565b60405180910390fd5b805181602001fd5b63150b7a0260e01b7bffffffffffffffffffffffffffffffffffffffffffffffffffffffff1916817bffffffffffffffffffffffffffffffffffffffffffffffffffffffff19161491505061153a565b600190505b949350505050565b6060600082141561158a576040518060400160405280600181526020017f300000000000000000000000000000000000000000000000000000000000000081525090506116ea565b600082905060005b600082146115bc5780806115a590612607565b915050600a826115b59190612489565b9150611592565b60008167ffffffffffffffff8111156115fe577f4e487b7100000000000000000000000000000000000000000000000000000000600052604160045260246000fd5b6040519080825280601f01601f1916602001820160405280156116305781602001600182028036833780820191505090505b5090505b600085146116e35760018261164991906124ba565b9150600a856116589190612650565b60306116649190612433565b60f81b8183815181106116a0577f4e487b7100000000000000000000000000000000000000000000000000000000600052603260045260246000fd5b60200101907effffffffffffffffffffffffffffffffffffffffffffffffffffffffffffff1916908160001a905350600a856116dc9190612489565b9450611634565b8093505050505b919050565b6116f9838361176d565b61170660008484846113ab565b611745576040517f08c379a000000000000000000000000000000000000000000000000000000000815260040161173c9061214e565b60405180910390fd5b505050565b6000808273ffffffffffffffffffffffffffffffffffffffff163b119050919050565b600073ffffffffffffffffffffffffffffffffffffffff168273ffffffffffffffffffffffffffffffffffffffff1614156117dd576040517f08c379a00000000000000000000000000000000000000000000000000000000081526004016117d49061228e565b60405180910390fd5b6117e681610c16565b15611826576040517f08c379a000000000000000000000000000000000000000000000000000000000815260040161181d9061218e565b60405180910390fd5b611832600083836113a1565b6001600360008473ffffffffffffffffffffffffffffffffffffffff1673ffffffffffffffffffffffffffffffffffffffff16815260200190815260200160002060008282546118829190612433565b92505081905550816002600083815260200190815260200160002060006101000a81548173ffffffffffffffffffffffffffffffffffffffff021916908373ffffffffffffffffffffffffffffffffffffffff160217905550808273ffffffffffffffffffffffffffffffffffffffff16600073ffffffffffffffffffffffffffffffffffffffff167fddf252ad1be2c89b69c2b068fc378daa952ba7f163c4a11628f55a4df523b3ef60405160405180910390a4611943600083836113a6565b5050565b828054611953906125a4565b90600052602060002090601f01602090048101928261197557600085556119bc565b82601f1061198e57805160ff19168380011785556119bc565b828001600101855582156119bc579182015b828111156119bb5782518255916020019190600101906119a0565b5b5090506119c991906119cd565b5090565b5b808211156119e65760008160009055506001016119ce565b5090565b60006119fd6119f88461238e565b612369565b905082815260208101848484011115611a1557600080fd5b611a20848285612562565b509392505050565b6000611a3b611a36846123bf565b612369565b905082815260208101848484011115611a5357600080fd5b611a5e848285612562565b509392505050565b600081359050611a7581612bcc565b92915050565b600081359050611a8a81612be3565b92915050565b600081359050611a9f81612bfa565b92915050565b600081519050611ab481612bfa565b92915050565b600082601f830112611acb57600080fd5b8135611adb8482602086016119ea565b91505092915050565b600082601f830112611af557600080fd5b8135611b05848260208601611a28565b91505092915050565b600081359050611b1d81612c11565b92915050565b600060208284031215611b3557600080fd5b6000611b4384828501611a66565b91505092915050565b60008060408385031215611b5f57600080fd5b6000611b6d85828601611a66565b9250506020611b7e85828601611a66565b9150509250929050565b600080600060608486031215611b9d57600080fd5b6000611bab86828701611a66565b9350506020611bbc86828701611a66565b9250506040611bcd86828701611b0e565b9150509250925092565b60008060008060808587031215611bed57600080fd5b6000611bfb87828801611a66565b9450506020611c0c87828801611a66565b9350506040611c1d87828801611b0e565b925050606085013567ffffffffffffffff811115611c3a57600080fd5b611c4687828801611aba565b91505092959194509250565b60008060408385031215611c6557600080fd5b6000611c7385828601611a66565b9250506020611c8485828601611a7b565b9150509250929050565b60008060408385031215611ca157600080fd5b6000611caf85828601611a66565b9250506020611cc085828601611b0e565b9150509250929050565b600060208284031215611cdc57600080fd5b6000611cea84828501611a90565b91505092915050565b600060208284031215611d0557600080fd5b6000611d1384828501611aa5565b91505092915050565b600060208284031215611d2e57600080fd5b600082013567ffffffffffffffff811115611d4857600080fd5b611d5484828501611ae4565b91505092915050565b600060208284031215611d6f57600080fd5b6000611d7d84828501611b0e565b91505092915050565b611d8f816124ee565b82525050565b611d9e81612500565b82525050565b6000611daf826123f0565b611db98185612406565b9350611dc9818560208601612571565b611dd28161273d565b840191505092915050565b6000611de8826123fb565b611df28185612417565b9350611e02818560208601612571565b611e0b8161273d565b840191505092915050565b6000611e21826123fb565b611e2b8185612428565b9350611e3b818560208601612571565b80840191505092915050565b6000611e54603283612417565b9150611e5f8261274e565b604082019050919050565b6000611e77602583612417565b9150611e828261279d565b604082019050919050565b6000611e9a601c83612417565b9150611ea5826127ec565b602082019050919050565b6000611ebd602483612417565b9150611ec882612815565b604082019050919050565b6000611ee0601983612417565b9150611eeb82612864565b602082019050919050565b6000611f03602c83612417565b9150611f0e8261288d565b604082019050919050565b6000611f26603883612417565b9150611f31826128dc565b604082019050919050565b6000611f49602a83612417565b9150611f548261292b565b604082019050919050565b6000611f6c602983612417565b9150611f778261297a565b604082019050919050565b6000611f8f602e83612417565b9150611f9a826129c9565b604082019050919050565b6000611fb2602083612417565b9150611fbd82612a18565b602082019050919050565b6000611fd5603183612417565b9150611fe082612a41565b604082019050919050565b6000611ff8602c83612417565b915061200382612a90565b604082019050919050565b600061201b602f83612417565b915061202682612adf565b604082019050919050565b600061203e602183612417565b915061204982612b2e565b604082019050919050565b6000612061603183612417565b915061206c82612b7d565b604082019050919050565b61208081612558565b82525050565b60006120928285611e16565b915061209e8284611e16565b91508190509392505050565b60006020820190506120bf6000830184611d86565b92915050565b60006080820190506120da6000830187611d86565b6120e76020830186611d86565b6120f46040830185612077565b81810360608301526121068184611da4565b905095945050505050565b60006020820190506121266000830184611d95565b92915050565b600060208201905081810360008301526121468184611ddd565b905092915050565b6000602082019050818103600083015261216781611e47565b9050919050565b6000602082019050818103600083015261218781611e6a565b9050919050565b600060208201905081810360008301526121a781611e8d565b9050919050565b600060208201905081810360008301526121c781611eb0565b9050919050565b600060208201905081810360008301526121e781611ed3565b9050919050565b6000602082019050818103600083015261220781611ef6565b9050919050565b6000602082019050818103600083015261222781611f19565b9050919050565b6000602082019050818103600083015261224781611f3c565b9050919050565b6000602082019050818103600083015261226781611f5f565b9050919050565b6000602082019050818103600083015261228781611f82565b9050919050565b600060208201905081810360008301526122a781611fa5565b9050919050565b600060208201905081810360008301526122c781611fc8565b9050919050565b600060208201905081810360008301526122e781611feb565b9050919050565b600060208201905081810360008301526123078161200e565b9050919050565b6000602082019050818103600083015261232781612031565b9050919050565b6000602082019050818103600083015261234781612054565b9050919050565b60006020820190506123636000830184612077565b92915050565b6000612373612384565b905061237f82826125d6565b919050565b6000604051905090565b600067ffffffffffffffff8211156123a9576123a861270e565b5b6123b28261273d565b9050602081019050919050565b600067ffffffffffffffff8211156123da576123d961270e565b5b6123e38261273d565b9050602081019050919050565b600081519050919050565b600081519050919050565b600082825260208201905092915050565b600082825260208201905092915050565b600081905092915050565b600061243e82612558565b915061244983612558565b9250827fffffffffffffffffffffffffffffffffffffffffffffffffffffffffffffffff0382111561247e5761247d612681565b5b828201905092915050565b600061249482612558565b915061249f83612558565b9250826124af576124ae6126b0565b5b828204905092915050565b60006124c582612558565b91506124d083612558565b9250828210156124e3576124e2612681565b5b828203905092915050565b60006124f982612538565b9050919050565b60008115159050919050565b60007fffffffff0000000000000000000000000000000000000000000000000000000082169050919050565b600073ffffffffffffffffffffffffffffffffffffffff82169050919050565b6000819050919050565b82818337600083830152505050565b60005b8381101561258f578082015181840152602081019050612574565b8381111561259e576000848401525b50505050565b600060028204905060018216806125bc57607f821691505b602082108114156125d0576125cf6126df565b5b50919050565b6125df8261273d565b810181811067ffffffffffffffff821117156125fe576125fd61270e565b5b80604052505050565b600061261282612558565b91507fffffffffffffffffffffffffffffffffffffffffffffffffffffffffffffffff82141561264557612644612681565b5b600182019050919050565b600061265b82612558565b915061266683612558565b925082612676576126756126b0565b5b828206905092915050565b7f4e487b7100000000000000000000000000000000000000000000000000000000600052601160045260246000fd5b7f4e487b7100000000000000000000000000000000000000000000000000000000600052601260045260246000fd5b7f4e487b7100000000000000000000000000000000000000000000000000000000600052602260045260246000fd5b7f4e487b7100000000000000000000000000000000000000000000000000000000600052604160045260246000fd5b6000601f19601f8301169050919050565b7f4552433732313a207472616e7366657220746f206e6f6e20455243373231526560008201527f63656976657220696d706c656d656e7465720000000000000000000000000000602082015250565b7f4552433732313a207472616e736665722066726f6d20696e636f72726563742060008201527f6f776e6572000000000000000000000000000000000000000000000000000000602082015250565b7f4552433732313a20746f6b656e20616c7265616479206d696e74656400000000600082015250565b7f4552433732313a207472616e7366657220746f20746865207a65726f2061646460008201527f7265737300000000000000000000000000000000000000000000000000000000602082015250565b7f4552433732313a20617070726f766520746f2063616c6c657200000000000000600082015250565b7f4552433732313a206f70657261746f7220717565727920666f72206e6f6e657860008201527f697374656e7420746f6b656e0000000000000000000000000000000000000000602082015250565b7f4552433732313a20617070726f76652063616c6c6572206973206e6f74206f7760008201527f6e6572206e6f7220617070726f76656420666f7220616c6c0000000000000000602082015250565b7f4552433732313a2062616c616e636520717565727920666f7220746865207a6560008201527f726f206164647265737300000000000000000000000000000000000000000000602082015250565b7f4552433732313a206f776e657220717565727920666f72206e6f6e657869737460008201527f656e7420746f6b656e0000000000000000000000000000000000000000000000602082015250565b7f45524337323155524953746f726167653a2055524920736574206f66206e6f6e60008201527f6578697374656e7420746f6b656e000000000000000000000000000000000000602082015250565b7f4552433732313a206d696e7420746f20746865207a65726f2061646472657373600082015250565b7f45524337323155524953746f726167653a2055524920717565727920666f722060008201527f6e6f6e6578697374656e7420746f6b656e000000000000000000000000000000602082015250565b7f4552433732313a20617070726f76656420717565727920666f72206e6f6e657860008201527f697374656e7420746f6b656e0000000000000000000000000000000000000000602082015250565b7f4552433732314d657461646174613a2055524920717565727920666f72206e6f60008201527f6e6578697374656e7420746f6b656e0000000000000000000000000000000000602082015250565b7f4552433732313a20617070726f76616c20746f2063757272656e74206f776e6560008201527f7200000000000000000000000000000000000000000000000000000000000000602082015250565b7f4552433732313a207472616e736665722063616c6c6572206973206e6f74206f60008201527f776e6572206e6f7220617070726f766564000000000000000000000000000000602082015250565b612bd5816124ee565b8114612be057600080fd5b50565b612bec81612500565b8114612bf757600080fd5b50565b612c038161250c565b8114612c0e57600080fd5b50565b612c1a81612558565b8114612c2557600080fd5b5056fea26469706673582212208076ab48fcee973b53e81937afac1912e2ec06be860e7d4f865a4ae22605ce2d64736f6c63430008040033",
  "linkReferences": {},
  "deployedLinkReferences": {}
}